:10015600E4FDFC7F0112008F1200F58F1CE51C6088
:10016600F77F647E0012017AE51CFD7C007F011298
:04017600008F80E492
:1001B300EF1FAC0670011E4C600A7D027CC7DCFE9B
:0401C300DDFC80ECF3
:0101C7002215
:10019C001408003F0006005B004F0066006D007DF8
:0601AC000007007E006F59
:10008F00EF14B4080050549000A475F003A4C58376
:10009F0025F0C583730200BC0200C00200C4020039
:1000AF00C80200CC0200D40200DC0200E4C2A4802B
:1000BF000EC2A48012C2A48016C2A4801AD2A4C2F7
:1000CF00A3C2A28016D2A4C2A3D2A2800ED2A4D25F
:1000DF00A3C2A28006D2A4D2A3D2A2ED25E0240807
:0600EF00F808E6F580228E
:1000F500E4F51D20B1137F14FE1201B330B1FD7F6D
:10010500147E001201B3751D0120B0147F147E000A
:100115001201B330B0FD7F147E001201B3751D02CC
:1001250020B2147F147E001201B330B2FD7F147E1D
:10013500001201B3751D0320B3147F147E00120154
:10014500B330B3FD7F147E001201B3751D04AF1DDE
:010155002287
:0501C800007FE3DFFEF3
:0101CD00220F
:04017A00AD07AC061B
:10017E00E4FBFAED25E0FFEC33FEC3EB9FEA9E5065
:0D018E000CB2A51201C80BBB00010A80E6EF
:01019B002241
:03000000020003F8
:0C000300787FE4F6D8FD75811D02004AEC
:10000F00020156E493A3F8E493A34003F68001F2B0
:10001F0008DFF48029E493A3F85407240CC8C333F2
:10002F00C4540F4420C8834004F456800146F6DFC1
:10003F00E4800B010204081020408090019CE47EB4
:10004F00019360BCA3FF543F30E509541FFEE493B6
:10005F00A360010ECF54C025E060A840B8E493A37D
:10006F00FAE493A3F8E493A3C8C582C8CAC583CAA8
:10007F00F0A3C8C582C8CAC583CADFE9DEE780BE60
:0101B200004C
:00000001FF
