:1000F800202008000000000000000000001F3C1F36
:100108000000000000071C3F600000000000000025
:03011800000000E4
:10008F00E4F529120153E4F528E52825292408F879
:10009F00E6FD7C00AF2812011C0528E528C3940853
:1000AF0040E7052AE52AD3940A4005E4F52A0529F5
:0C00BF00E529D3942040CFE4F52980CA45
:10013E00EF1FAC0670011E4C600A7D027CC7DCFE10
:04014E00DDFC80EC68
:01015200228A
:0200CB00AD077F
:1000CD00E4FB7E007480A803088006CEA2E713CE61
:1000DD0013D8F8FFEDF582EF558224FF92B4D2B616
:0A00ED00C2B60BBB08DCD2B5C2B5E9
:0100F70022E6
:05015300C2B6C2B52296
:10011C00AA07AF051200CBAF02A8077480088002B3
:10012C00C313D8FCF4F5807F017E0012013E75806C
:02013C00FF22A0
:03000000020003F8
:0C000300787FE4F6D8FD75812A02004ADF
:10000F0002008FE493A3F8E493A34003F68001F278
:10001F0008DFF48029E493A3F85407240CC8C333F2
:10002F00C4540F4420C8834004F456800146F6DFC1
:10003F00E4800B01020408102040809000F8E47E59
:10004F00019360BCA3FF543F30E509541FFEE493B6
:10005F00A360010ECF54C025E060A840B8E493A37D
:10006F00FAE493A3F8E493A3C8C582C8CAC583CAA8
:10007F00F0A3C8C582C8CAC583CADFE9DEE780BE60
:01011B0000E3
:00000001FF
