:1003AE005772697465204F4B00202020202020209A
:0B03BE00200052656164204F4B2000BE
:100003001203F4750C05AB1EAA1D7D017F011203BB
:10001300911201768F1FE51FB40115051EE51E70B1
:1000230002051D750C05FBAA1D7D017F01120391BD
:10003300E51FB40216E51E151E7002151D750C058D
:10004300AB1EAA1D7D017F01120391E51F6403709E
:1000530040FCAD1EFF12030E7F057E001203DFE599
:100063001DFD7C007F0112030E7F057E001203DF5E
:100073007BFF7A0379AE7D017F021203327FE87E34
:10008300031203DF7BFF7A0379B77D017F0212033B
:1000930032E51F64046003020014FF1202B5751DEC
:1000A300008F1E7F011202B5EFFEEE421D750C0597
:1000B300AB1EAA1D7D017F011203917BFF7A037999
:1000C300C07D017F021203327FE87E031203DF7BD0
:0F00D300FF7A0379B77D017F0212033202001416
:1003DF00EF1FAC0670011E4C600A7D027CEFDCFE45
:0403EF00DDFC80ECC5
:0103F30022E7
:06040800C2A58F80D2A7FF
:08040E007F027EEFDEFEDFFC41
:0104160022C3
:0A042F00C2A6120408C2A702040EC0
:10035500CFCDCFCECCCE1201217C007D0A1201215A
:04036500ED2430FF54
:0A036900D2A6120408C2A702040E77
:1003C900AE07BE0104ED148006BE0209ED243F44C8
:0603D90080FF12042F2238
:1003F4007F3812042F7F0C12042F7F0612042F7FE4
:040404000102042FBE
:0A043900AC031203C9AF040203690B
:060332008B088A09890A0C
:100338001203C9E4FDAB08AA09A90A8D82758300D6
:0C0348001200E2FF60061203690D80E95C
:010354002286
:0C0282007F0AEA24FFFDE434FFFC7E004C
:08028E008E0D8F0E8C0F8D10F8
:100296007F017E00E4FBEBC39510E50F6480F874E4
:0E02A6008098500AAC0DAD0E12010F0B80E8CF
:0102B4002227
:040391008A0A8B0B3E
:100395001203C9AA0CEAD39400400D120282AC0ADA
:0803A500AD0B1203551A80EDA7
:0103AD00222D
:1001D7001203C9C3EA64809480400B7F2B12036922
:1001E7008A168B17800E7F2D120369C3E49BF517C0
:1001F700E49AF516AA15EAD39400400D120282ACD0
:0902070016AD171203551A80ED23
:0102100022CB
:040211008A1A8B1B9F
:100215001203C9AA1CEAD3940040297F1012028454
:10022500AC1AAD1BCFCDCFCECCCE120121EF540FE2
:10023500FEC3940AEE5004243080022437FF1203D3
:04024500691A80D1E1
:010249002292
:04024A008A238B2454
:10024E001203C9AA25EAD394004028EA24FFFDE44C
:10025E0034FFFC7F027E0012028EAC23AD24CFCD84
:10026E00CFCECCCE120121EF54012430FF12036900
:03027E001A80D211
:01028100225A
:10017600E4F50820B1137F14FE1203DF30B1FD7FD2
:10018600147E001203DF75080120B0147F147E0070
:100196001203DF30B0FD7F147E001203DF75080204
:1001A60020B2147F147E001203DF30B2FD7F147E6E
:1001B600001203DF75080320B3147F147E001203B8
:1001C600DF30B3FD7F147E001203DF750804AF082D
:0101D6002206
:10030E008F088C098D0A1204437FA01202E5120495
:10031E0017AF081202E5120417AF0A1202E5120413
:04032E001702045559
:0202B5008F08B0
:1002B7001204437FA01202E5120417AF081202E5E9
:1002C7001204171204437FA11202E5120417120346
:0D02D700738F09D20012044C120455AF09B8
:0102E40022F7
:09044300D2A0D2A1C2A0C2A122E4
:07045500C2A0D2A1D2A02237
:0202E500AD0763
:1002E700E4FB7E007480A803088006CEA2E713CE45
:1002F70013D8F8FFEDF582EF558224FF92A0D2A123
:06030700C2A10BBB08DCE3
:01030D0022CD
:10037300E4FFD2A0FED2A130A00DA80674800880AD
:0D03830002C313D8FC4207C2A10EBE08E859
:01039000224A
:09044C00A20092A0D2A1C2A122DB
:0B041700E4D2A0D2A1A2A033FFC2A13A
:0104220022B7
:03000000020423D4
:0C042300787FE4F6D8FD75812502000307
:1000E200BB010CE58229F582E5833AF583E02250D3
:1000F20006E92582F8E622BBFE06E92582F8E2221D
:0D010200E58229F582E5833AF583E4932236
:10010F00EF8DF0A4A8F0CF8CF0A428CE8DF0A42E04
:02011F00FE22BE
:10012100BC000BBE0029EF8DF084FFADF022E4CCC2
:10013100F875F008EF2FFFEE33FEEC33FCEE9DEC8B
:10014100984005FCEE9DFE0FD5F0E9E4CEFD22EDD1
:10015100F8F5F0EE8420D21CFEADF075F008EF2F1B
:10016100FFED33FD4007985006D5F0F222C398FD0C
:050171000FD5F0EA22A9
:00000001FF
