:05001E0012000380FE4A
:03002300020026B2
:10002600C0E0C0F0C083C082C0D075D000C000C0A0
:1000360001C002C003C004C005C006C00730980C4A
:10004600E599F4F5A0AF991200A5C298D007D0069D
:10005600D005D004D003D002D001D000D0D0D082B9
:07006600D083D0F0D0E0329E
:10008400EF1FAC0670011E4C600A7D027CC7DCFECB
:04009400DDFC80EC23
:010098002245
:10006D005389F0438901C28DD28C758CFC758A1829
:07007D00D2A9D2AFC2B922E3
:100003004387807598505389F0438920758BF47525
:0B0013008DF4C2ABD28ED2AFD2AC2273
:0800A5008F993099FDC29922E8
:0300000002009962
:0C009900787FE4F6D8FD75810802001E97
:00000001FF
