:10000300E4F5087590FFC2932097137F14FE120442
:10001300483097FD7F147E0012044875080120962E
:10002300147F147E001204483096FD7F147E001264
:1000330004487508052095147F147E001204483087
:1000430095FD7F147E001204487508092094147FDF
:10005300147E001204483094FD7F147E001204487D
:1000630075080D7590FFC2922097147F147E0012BD
:1000730004483097FD7F147E00120448750802205F
:1000830096147F147E001204483096FD7F147E0080
:100093001204487508062095147F147E0012044844
:1000A3003095FD7F147E0012044875080A209414CD
:1000B3007F147E001204483094FD7F147E001204E6
:1000C3004875080E7590FFC2912097147F147E0027
:1000D3001204483097FD7F147E001204487508030C
:1000E3002096147F147E001204483096FD7F147E00
:1000F300001204487508072095147F147E0012042B
:10010300483095FD7F147E0012044875080B209437
:10011300147F147E001204483094FD7F147E001275
:10012300044875080F7590FFC2902097147F147EC2
:10013300001204483097FD7F147E001204487508AE
:10014300042096147F147E001204483096FD7F1419
:100153007E001204487508082095147F147E00124F
:1001630004483095FD7F147E0012044875080C2066
:1001730094147F147E001204483094FD7F147E0093
:08018300120448750810AF08D2
:01018B002251
:10041B0050617373776F72643A004B61694D656E0F
:07042B000042754B616900FE
:10018C0012045D7BFF7A04791B7D017F011203BD94
:10019C001200038F1CE51C6048D3940A5043C3E53E
:1001AC00199404E518648094805020AE1AAF1B7C1F
:1001BC00007D0A1202788E1A8F1BE51C75F00A84DA
:1001CC00E5F0251BF51BE4351AF51A0519E5197030
:1001DC00020518750C04AB1BAA1A7D017F021203D1
:1001EC00FEE51C640B7036E51BB4410DE51AB40139
:1001FC00087BFF7A04792580067BFF7A04792C7DB5
:10020C000B7F011203BDE4F518F519F51AF51B75F2
:10021C000C04AB1BAA1A7D017F021203FEE51C64C1
:10022C000C600302019CF518F519F51AF51B750CF9
:0F023C0004AB1BAA1A7D017F021203FE02019C74
:10044800EF1FAC0670011E4C600A7D027CC7DCFE03
:04045800DDFC80EC5B
:01045C00227D
:06047100C2A58F80D2A796
:080477007F027EEFDEFEDFFCD8
:01047F00225A
:0A048C00C2A6120471C2A702047791
:1003E000CFCDCFCECCCE12028A7C007D0A12028AFB
:0403F000ED2430FFC9
:0A03F400D2A6120471C2A70204771A
:10043200AE07BE0104ED148006BE0209ED243F445E
:0604420080FF12048C2271
:10045D007F3812048C7F0C12048C7F0612048C7F63
:04046D000102048CF8
:0A049600AC03120432AF040203F4B9
:0603BD008B088A09890A81
:1003C300120432E4FDAB08AA09A90A8D82758300E1
:0C03D30012024BFF60061203F40D80E9DB
:0103DF0022FB
:0C038A007F0AEA24FFFDE434FFFC7E0043
:080396008E0D8F0E8C0F8D10EF
:10039E007F017E00E4FBEBC39510E50F6480F874DB
:0E03AE008098500AAC0DAD0E1202780B80E85C
:0103BC00221E
:0403FE008A0A8B0BD1
:10040200120432AA0CEAD39400400D12038AAC0AF9
:08041200AD0B1203E01A80EDAE
:01041A0022BF
:1002DF00120432C3EA64809480400B7F2B1203F424
:1002EF008A168B17800E7F2D1203F4C3E49BF5172C
:1002FF00E49AF516AA15EAD39400400D12038AACBE
:09030F0016AD171203E01A80ED8F
:0103180022C2
:040319008A1F8B208C
:10031D00120432AA21EAD3940040297F1012038CD3
:10032D00AC1FAD20CFCDCFCECCCE12028AEF540F65
:10033D00FEC3940AEE5004243080022437FF1203CA
:04034D00F41A80D14D
:010351002289
:040352008A248B2549
:10035600120432AA26EAD394004028EA24FFFDE4D8
:1003660034FFFC7F027E00120396AC24AD25CFCD70
:10037600CFCECCCE12028AEF54012430FF1203F402
:030386001A80D208
:010389002251
:0300000002048077
:0C048000787FE4F6D8FD75812602018C1F
:10024B00BB010CE58229F582E5833AF583E0225068
:10025B0006E92582F8E622BBFE06E92582F8E222B2
:0D026B00E58229F582E5833AF583E49322CC
:10027800EF8DF0A4A8F0CF8CF0A428CE8DF0A42E9A
:02028800FE2254
:10028A00BC000BBE0029EF8DF084FFADF022E4CC58
:10029A00F875F008EF2FFFEE33FEEC33FCEE9DEC21
:1002AA00984005FCEE9DFE0FD5F0E9E4CEFD22ED67
:1002BA00F8F5F0EE8420D21CFEADF075F008EF2FB1
:1002CA00FFED33FD4007985006D5F0F222C398FDA2
:0502DA000FD5F0EA223F
:00000001FF
