:100125001408003F0006005B004F0066006D007D6F
:060135000007007E006FD0
:10013C007D027CC7EF1FAA0670011E4A6006DCFE1A
:04014C00DDFC80F066
:01015000228C
:10008F00EF14B4080050549000A475F003A4C58376
:10009F0025F0C583730200BC0200C00200C4020039
:1000AF00C80200CC0200D40200DC0200E4C2A4802B
:1000BF000EC2A48012C2A48016C2A4801AD2A4C2F7
:1000CF00A3C2A28016D2A4C2A3D2A2800ED2A4D25F
:1000DF00A3C2A28006D2A4D2A3D2A2ED25E0240807
:0600EF00F808E6F580228E
:1000F5007D017C007F0112008F7E0012013C7D0294
:100105007C007F0212008F7F147E0012013C7D036C
:100115007C007F0312008F7FC87E0012013C80D0D7
:03000000020003F8
:0C000300787FE4F6D8FD75811B02004AEE
:10000F000200F5E493A3F8E493A34003F68001F212
:10001F0008DFF48029E493A3F85407240CC8C333F2
:10002F00C4540F4420C8834004F456800146F6DFC1
:10003F00E4800B0102040810204080900125E47E2B
:10004F00019360BCA3FF543F30E509541FFEE493B6
:10005F00A360010ECF54C025E060A840B8E493A37D
:10006F00FAE493A3F8E493A3C8C582C8CAC583CAA8
:10007F00F0A3C8C582C8CAC583CADFE9DEE780BE60
:01013B0000C3
:00000001FF
