:10000E001203B512041E8F12E512B4010CE5117025
:10001E00047F0180027F008F11E512B40207E4F520
:10002E000FF50EF510E51264037033E50FFD7C003D
:10003E00E4FF1203587F057E001203E2E50EFD7CFD
:10004E00007F011203587F057E001203E2E510FDCA
:10005E007C007F021203587F057E001203E2E51238
:10006E00B40415E4FF1202AF8F0F7F011202AF8F9F
:10007E000E7F021202AF8F10E50F75F00A84FD7C21
:10008E00007F08120403E50F75F00A84E5F0FD7C8D
:10009E00007F071204037D0B7C007F06120403E52C
:1000AE000E75F00A84FD7C007F05120403E50E75C3
:1000BE00F00A84E5F0FD7C007F041204037D0B7CC6
:1000CE00007F03120403E51075F00A84FD7C007FA7
:1000DE0002120403E51075F00A84E5F0FD7C007F42
:0700EE0001120403020011DE
:10033100E51160220510E510C394644019E4F5103D
:10034100050EE50E943C400EE4F50E050FE50F9405
:070351003C4003E4F50F221C
:03000B000200F5FB
:1000F500C0E0C0F0C083C082C0D075D000C000C0D1
:0D01050001C002C003C004C005C006C00751
:10011200758CFC758A180509E50970020508C394F7
:1001220014E508940040097508007509001202766A
:10013200050BE50B7002050AC39402E50A94004020
:1001420009750A00750B0012039A050DE50D700280
:10015200050CC3940AE50C94004009750C00750D5A
:040162000012033153
:10016600D007D006D005D004D003D002D001D000ED
:0B017600D0D0D082D083D0F0D0E03297
:1003E200EF1FAC0670011E4C600A7D027CC7DCFE6A
:0403F200DDFC80ECC2
:0103F60022E4
:1002DF000922000A0A0A0A0A0A0A0A182B003F0012
:1002EF0006005B004F0066006D007D0007007E007A
:0802FF006F0000004001210125
:09040300AE0574222FF8A60622B2
:10020D00E4F580EF14B40800505490022575F00306
:10021D00A4C58325F0C5837302023D02024102028B
:10022D004502024902024D02025502025D020265BB
:10023D00C2A4800EC2A48012C2A48016C2A4801AC9
:10024D00D2A4C2A3C2A28016D2A4C2A3D2A2800EEF
:10025D00D2A4D2A3C2A28006D2A4D2A3D2A2ED254B
:09026D00E0242BF808E6F58022DC
:10039A0074222521F8E6FD7C00AF2112020D052109
:0A03AA00E521C39409400375210109
:0103B4002226
:05041E00E4AF15F51527
:0104230022B6
:1003CC00E4FF20B1010F20B0027F0220B2027F03B4
:0503DC0020B3027F04C4
:0103E10022F9
:100276008513141203CC8F13E514B40107E513702C
:1002860003751501E514B40207E51370037515022D
:10029600E514B40307E5137003751503E514B404F8
:0802A60007E513700375150450
:0102AE00222D
:1003B5005389F0438901C28DD28C758CFC758A18DE
:0703C500D2A9D2AFC2B92298
:100358008F168C178D1812040C7FA0120308120335
:10036800F7AF161203081203F7AF181203081203A7
:04037800F702000385
:0202AF008F16A8
:1002B10012040C7FA01203081203F7AF16120308F1
:1002C1001203F712040C7FA11203081203F71203A1
:0D02D1007C8F17D200120415120003AF1726
:0102DE0022FD
:09040C00D2A0D2A1C2A0C2A1221B
:07000300C2A0D2A1D2A0228D
:02030800AD073F
:10030A00E4FB7E007480A803088006CEA2E713CE21
:10031A0013D8F8FFEDF582EF558224FF92A0D2A1FF
:06032A00C2A10BBB08DCC0
:0103300022AA
:10037C00E4FFD2A0FED2A130A00DA80674800880A4
:0D038C0002C313D8FC4207C2A10EBE08E850
:010399002241
:09041500A20092A0D2A1C2A12212
:0B03F700E4D2A0D2A1A2A033FFC2A15B
:0104020022D7
:0300000002018179
:0C018100787FE4F6D8FD7581420201C8C9
:10018D0002000EE493A3F8E493A34003F68001F27A
:10019D0008DFF48029E493A3F85407240CC8C33373
:1001AD00C4540F4420C8834004F456800146F6DF42
:1001BD00E4800B01020408102040809002DFE47EF1
:1001CD00019360BCA3FF543F30E509541FFEE49337
:1001DD00A360010ECF54C025E060A840B8E493A3FE
:1001ED00FAE493A3F8E493A3C8C582C8CAC583CA29
:1001FD00F0A3C8C582C8CAC583CADFE9DEE780BEE1
:0103070000F5
:00000001FF
