:100198001202200526E526700205257FE87E031257
:1001A800020B750C02AB26AA257D017F021201D82D
:0201B80080E1E4
:06023400C2A58F80D2A7D5
:08023A007F027EEFDEFEDFFC17
:010242002299
:0A024F00C2A6120234C2A702023A4E
:1001BA00CFCDCFCECCCE1200427C007D0A120042B7
:0401CA00ED2430FFF1
:0A01CE00D2A6120234C2A702023AC0
:1001F500AE07BE0104ED148006BE0209ED243F449E
:0602050080FF12024F22EF
:100220007F3812024F7F0C12024F7F0612024F7F5F
:040230000102024F76
:0A025900AC031201F5AF040201CE60
:060175008B228A2389247D
:10017B001201F5E4FDAB22AA23A9248D827583001D
:0C018B00120003FF60061201CE0D80E997
:010197002245
:0C0142007F0AEA24FFFDE434FFFC7E008D
:08014E008E0D8F0E8C0F8D1039
:100156007F017E00E4FBEBC39510E50F6480F87425
:0E0166008098500AAC0DAD0E1200300B80E8F0
:010174002268
:0401D8008A0A8B0BF9
:1001DC001201F5AA0CEAD39400400D120142AC0AAC
:0801EC00AD0B1201BA1A80EDFF
:0101F40022E8
:100097001201F5C3EA64809480400B7F2B1201CED6
:1000A7008A168B17800E7F2D1201CEC3E49BF5179E
:1000B700E49AF516AA15EAD39400400D120142AC52
:0900C70016AD171201BA1A80ED02
:0100D000220D
:0400D1008A1A8B1BE1
:1000D5001201F5AA1CEAD3940040297F10120144AD
:1000E500AC1AAD1BCFCDCFCECCCE120042EF540F04
:1000F500FEC3940AEE5004243080022437FF120117
:04010500CE1A80D1BD
:0101090022D3
:04010A008A1F8B209D
:10010E001201F5AA21EAD394004028EA24FFFDE467
:10011E0034FFFC7F027E0012014EAC1FAD20CFCD0E
:10012E00CFCECCCE120042EF54012430FF1201CEBE
:03013E001A80D252
:01014100229B
:10020B00EF1FAC0670011E4C600A7D027CC7DCFE42
:04021B00DDFC80EC9A
:01021F0022BC
:03000000020243B6
:0C024300787FE4F6D8FD75812602019852
:10000300BB010CE58229F582E5833AF583E02250B2
:1000130006E92582F8E622BBFE06E92582F8E222FC
:0D002300E58229F582E5833AF583E4932216
:10003000EF8DF0A4A8F0CF8CF0A428CE8DF0A42EE4
:02004000FE229E
:10004200BC000BBE0029EF8DF084FFADF022E4CCA2
:10005200F875F008EF2FFFEE33FEEC33FCEE9DEC6B
:10006200984005FCEE9DFE0FD5F0E9E4CEFD22EDB1
:10007200F8F5F0EE8420D21CFEADF075F008EF2FFB
:10008200FFED33FD4007985006D5F0F222C398FDEC
:050092000FD5F0EA2289
:00000001FF
