:10000E00E4F5297590FFC2932097137F14FE120416
:10001E00673097FD7F147E001204677529012096C4
:10002E00147F147E001204673096FD7F147E00123A
:10003E0004677529052095147F147E00120467301D
:10004E0095FD7F147E001204677529092094147F94
:10005E00147E001204673094FD7F147E0012046734
:10006E0075290D7590FFC2922097147F147E001291
:10007E0004673097FD7F147E0012046775290220F5
:10008E0096147F147E001204673096FD7F147E0056
:10009E001204677529062095147F147E00120467DA
:1000AE003095FD7F147E0012046775290A20941482
:1000BE007F147E001204673094FD7F147E001204BC
:1000CE006775290E7590FFC2912097147F147E00DC
:1000DE001204673097FD7F147E00120467752903A2
:1000EE002096147F147E001204673096FD7F147ED6
:1000FE00001204677529072095147F147E001204E0
:10010E00673095FD7F147E0012046775290B2094CD
:10011E00147F147E001204673094FD7F147E00124B
:10012E00046775290F7590FFC2902097147F147E77
:10013E00001204673097FD7F147E00120467752944
:10014E00042096147F147E001204673096FD7F14EF
:10015E007E001204677529082095147F147E001204
:10016E0004673095FD7F147E0012046775290C20FC
:10017E0094147F147E001204673094FD7F147E0069
:08018E00120467752910AF2966
:010196002246
:1003E10075A0FE12043A12022B8F20E520B401F60B
:0E03F1000521E521C3940240EDE4F52180E8EA
:03000B0002028C62
:0B028C00C0E0C0D075D000C000C0076B
:10029700758CFC758A18051FE51F7002051EC3942F
:1002A700F4E51E94014029751E00751F00E52170B5
:1002B7000DAFA07801EF08800123D8FDF5A0E52157
:1002C700B4010DAFA07801EF08800103D8FDF5A0B8
:0902D700D007D000D0D0D0E032F5
:10046700EF1FAC0670011E4C600A7D027CC7DCFEE4
:04047700DDFC80EC3C
:01047B00225E
:06049000C2A58F80D2A777
:080496007F027EEFDEFEDFFCB9
:01049E00223B
:0A04AB00C2A6120490C2A702049634
:1003FF00CFCDCFCECCCE1201D67C007D0A1201D646
:04040F00ED2430FFA9
:0A041300D2A6120490C2A7020496BC
:10045100AE07BE0104ED148006BE0209ED243F443F
:0604610080FF1204AB2233
:10047C007F381204AB7F0C1204AB7F061204AB7FE7
:04048C00010204ABBA
:0A04B500AC03120451AF040204135B
:0603BE008B268A27892826
:1003C400120451E4FDAB26AA27A9288D8275830067
:0C03D400120197FF60061204130D80E96F
:0103E00022FA
:0C038B007F0AEA24FFFDE434FFFC7E0042
:080397008E228F238C248D259A
:10039F007F017E00E4FBEBC39525E5246480F874B0
:0E03AF008098500AAC22AD231201C40B80E8E6
:0103BD00221D
:04041D008A118B12A3
:10042100120451AA13EAD39400400D12038BAC11AC
:08043100AD121203FF1A80ED69
:0104390022A0
:1002E000120451C3EA64809480400B7F2B120413E4
:1002F0008A0D8B0E800E7F2D120413C3E49BF50E26
:10030000E49AF50DAA0CEAD39400400D12038BACCD
:090310000DAD0E1203FF1A80ED81
:0103190022C1
:04031A008A168B179D
:10031E00120451AA18EAD3940040297F1012038DBB
:10032E00AC16AD17CFCDCFCECCCE1201D6EF540F2B
:10033E00FEC3940AEE5004243080022437FF1204C8
:04034E00131A80D12D
:010352002288
:040353008A1B8B1C5A
:10035700120451AA1DEAD394004028EA24FFFDE4C1
:1003670034FFFC7F027E00120397AC1BAD1CCFCD80
:10037700CFCECCCE1201D6EF54012430FF12041396
:030387001A80D207
:01038A002250
:10043A005389F0438901C28DD28C758CFC758A1858
:07044A00D2A9D2AFC2B92212
:10022B00E4F52A20B1137F14FE12046730B1FD7F71
:10023B00147E00120467752A0120B0147F147E000F
:10024B0012046730B0FD7F147E00120467752A021A
:10025B0020B2147F147E0012046730B2FD7F147E2F
:10026B0000120467752A0320B3147F147E00120456
:10027B006730B3FD7F147E00120467752A04AF2A22
:01028B002250
:0300000002049F58
:0C049F00787FE4F6D8FD75812A0203E1A5
:10019700BB010CE58229F582E5833AF583E022501D
:1001A70006E92582F8E622BBFE06E92582F8E22267
:0D01B700E58229F582E5833AF583E4932281
:1001C400EF8DF0A4A8F0CF8CF0A428CE8DF0A42E4F
:0201D400FE2209
:1001D600BC000BBE0029EF8DF084FFADF022E4CC0D
:1001E600F875F008EF2FFFEE33FEEC33FCEE9DECD6
:1001F600984005FCEE9DFE0FD5F0E9E4CEFD22ED1C
:10020600F8F5F0EE8420D21CFEADF075F008EF2F65
:10021600FFED33FD4007985006D5F0F222C398FD56
:050226000FD5F0EA22F3
:00000001FF
